{
	"_format": "hh-sol-artifact-1",
	"contractName": "FareSpin",
	"sourceName": "contracts/FareSpin.sol",
	"abi": [
		{
			"inputs": [
				{
					"internalType": "address",
					"name": "_fareTokenAddress",
					"type": "address"
				},
				{
					"internalType": "address",
					"name": "_vrfCoordinator",
					"type": "address"
				},
				{
					"internalType": "address",
					"name": "linkTokenAddress",
					"type": "address"
				},
				{
					"internalType": "bytes32",
					"name": "_keyHash",
					"type": "bytes32"
				},
				{
					"internalType": "uint256",
					"name": "_vrfLinkFee",
					"type": "uint256"
				},
				{
					"internalType": "address",
					"name": "_treasuryAddress",
					"type": "address"
				}
			],
			"stateMutability": "nonpayable",
			"type": "constructor"
		},
		{
			"anonymous": false,
			"inputs": [
				{
					"indexed": true,
					"internalType": "uint256",
					"name": "contractModeId",
					"type": "uint256"
				}
			],
			"name": "ContractModeUpdated",
			"type": "event"
		},
		{
			"anonymous": false,
			"inputs": [
				{
					"indexed": true,
					"internalType": "uint256",
					"name": "roundId",
					"type": "uint256"
				},
				{
					"indexed": true,
					"internalType": "address",
					"name": "user",
					"type": "address"
				},
				{
					"indexed": false,
					"internalType": "bool",
					"name": "hasMinted",
					"type": "bool"
				}
			],
			"name": "EntrySettled",
			"type": "event"
		},
		{
			"anonymous": false,
			"inputs": [
				{
					"indexed": true,
					"internalType": "uint256",
					"name": "roundId",
					"type": "uint256"
				},
				{
					"indexed": true,
					"internalType": "uint256",
					"name": "batchId",
					"type": "uint256"
				},
				{
					"indexed": true,
					"internalType": "address",
					"name": "user",
					"type": "address"
				}
			],
			"name": "EntrySubmitted",
			"type": "event"
		},
		{
			"anonymous": false,
			"inputs": [
				{
					"indexed": true,
					"internalType": "uint256",
					"name": "roundId",
					"type": "uint256"
				},
				{
					"indexed": true,
					"internalType": "address",
					"name": "user",
					"type": "address"
				}
			],
			"name": "NFTMint",
			"type": "event"
		},
		{
			"anonymous": false,
			"inputs": [
				{
					"indexed": false,
					"internalType": "address",
					"name": "account",
					"type": "address"
				}
			],
			"name": "Paused",
			"type": "event"
		},
		{
			"anonymous": false,
			"inputs": [
				{
					"indexed": true,
					"internalType": "bytes32",
					"name": "vrfRequestId",
					"type": "bytes32"
				}
			],
			"name": "RandomNumberRequested",
			"type": "event"
		},
		{
			"anonymous": false,
			"inputs": [
				{
					"indexed": true,
					"internalType": "uint256",
					"name": "roundId",
					"type": "uint256"
				},
				{
					"indexed": true,
					"internalType": "bytes32",
					"name": "vrfRequestId",
					"type": "bytes32"
				},
				{
					"indexed": false,
					"internalType": "uint256",
					"name": "randomNum",
					"type": "uint256"
				},
				{
					"indexed": false,
					"internalType": "uint256",
					"name": "randomEliminator",
					"type": "uint256"
				}
			],
			"name": "RoundConcluded",
			"type": "event"
		},
		{
			"anonymous": false,
			"inputs": [
				{
					"indexed": false,
					"internalType": "bool",
					"name": "isPaused",
					"type": "bool"
				}
			],
			"name": "RoundPausedChanged",
			"type": "event"
		},
		{
			"anonymous": false,
			"inputs": [
				{
					"indexed": false,
					"internalType": "address",
					"name": "account",
					"type": "address"
				}
			],
			"name": "Unpaused",
			"type": "event"
		},
		{
			"inputs": [],
			"name": "CONTRACT_EXPECTED_VALUE_CEILING",
			"outputs": [
				{
					"internalType": "uint256",
					"name": "",
					"type": "uint256"
				}
			],
			"stateMutability": "view",
			"type": "function"
		},
		{
			"inputs": [],
			"name": "TREASURY_MINT_CAP",
			"outputs": [
				{
					"internalType": "uint256",
					"name": "",
					"type": "uint256"
				}
			],
			"stateMutability": "view",
			"type": "function"
		},
		{
			"inputs": [
				{
					"internalType": "uint256",
					"name": "",
					"type": "uint256"
				},
				{
					"internalType": "address",
					"name": "",
					"type": "address"
				}
			],
			"name": "batchEntryMap",
			"outputs": [
				{
					"internalType": "uint256",
					"name": "batchEntryId",
					"type": "uint256"
				},
				{
					"internalType": "address",
					"name": "user",
					"type": "address"
				},
				{
					"internalType": "bool",
					"name": "settled",
					"type": "bool"
				},
				{
					"internalType": "uint256",
					"name": "totalEntryAmount",
					"type": "uint256"
				},
				{
					"internalType": "uint256",
					"name": "totalMintAmount",
					"type": "uint256"
				}
			],
			"stateMutability": "view",
			"type": "function"
		},
		{
			"inputs": [
				{
					"internalType": "uint256",
					"name": "",
					"type": "uint256"
				}
			],
			"name": "contractModes",
			"outputs": [
				{
					"internalType": "uint256",
					"name": "id",
					"type": "uint256"
				},
				{
					"internalType": "uint256",
					"name": "cardinality",
					"type": "uint256"
				},
				{
					"internalType": "uint256",
					"name": "contractExpectedValueFloor",
					"type": "uint256"
				},
				{
					"internalType": "uint256",
					"name": "mintMultiplier",
					"type": "uint256"
				},
				{
					"internalType": "uint256",
					"name": "minAmount",
					"type": "uint256"
				},
				{
					"internalType": "uint256",
					"name": "maxAmount",
					"type": "uint256"
				},
				{
					"internalType": "uint256",
					"name": "entryLimit",
					"type": "uint256"
				},
				{
					"internalType": "bool",
					"name": "isActive",
					"type": "bool"
				}
			],
			"stateMutability": "view",
			"type": "function"
		},
		{
			"inputs": [
				{
					"internalType": "uint256",
					"name": "roundId",
					"type": "uint256"
				}
			],
			"name": "getAllUsersByRoundId",
			"outputs": [
				{
					"internalType": "address[]",
					"name": "users",
					"type": "address[]"
				}
			],
			"stateMutability": "view",
			"type": "function"
		},
		{
			"inputs": [
				{
					"internalType": "uint256",
					"name": "roundId",
					"type": "uint256"
				}
			],
			"name": "getBatchEntryCount",
			"outputs": [
				{
					"internalType": "uint256",
					"name": "count",
					"type": "uint256"
				}
			],
			"stateMutability": "view",
			"type": "function"
		},
		{
			"inputs": [],
			"name": "getCurrentContractModeId",
			"outputs": [
				{
					"internalType": "uint256",
					"name": "id",
					"type": "uint256"
				}
			],
			"stateMutability": "view",
			"type": "function"
		},
		{
			"inputs": [],
			"name": "getCurrentRoundId",
			"outputs": [
				{
					"internalType": "uint256",
					"name": "id",
					"type": "uint256"
				}
			],
			"stateMutability": "view",
			"type": "function"
		},
		{
			"inputs": [
				{
					"internalType": "uint256",
					"name": "roundId",
					"type": "uint256"
				}
			],
			"name": "getEliminatorsByRoundId",
			"outputs": [
				{
					"components": [
						{
							"internalType": "uint256",
							"name": "contractModeId",
							"type": "uint256"
						},
						{
							"internalType": "uint256",
							"name": "recordedExpectedValueFloor",
							"type": "uint256"
						},
						{
							"internalType": "bool",
							"name": "isEliminator",
							"type": "bool"
						}
					],
					"internalType": "struct FareSpin.Eliminator[]",
					"name": "eliminators",
					"type": "tuple[]"
				}
			],
			"stateMutability": "view",
			"type": "function"
		},
		{
			"inputs": [
				{
					"internalType": "uint256",
					"name": "roundId",
					"type": "uint256"
				},
				{
					"internalType": "address",
					"name": "user",
					"type": "address"
				}
			],
			"name": "getEntriesByRoundUser",
			"outputs": [
				{
					"components": [
						{
							"internalType": "uint256",
							"name": "amount",
							"type": "uint256"
						},
						{
							"internalType": "uint256",
							"name": "contractModeId",
							"type": "uint256"
						},
						{
							"internalType": "uint256",
							"name": "pickedNumber",
							"type": "uint256"
						}
					],
					"internalType": "struct FareSpin.Entry[]",
					"name": "",
					"type": "tuple[]"
				}
			],
			"stateMutability": "view",
			"type": "function"
		},
		{
			"inputs": [
				{
					"internalType": "uint256",
					"name": "roundId",
					"type": "uint256"
				},
				{
					"internalType": "address",
					"name": "user",
					"type": "address"
				},
				{
					"internalType": "uint256",
					"name": "entryIdx",
					"type": "uint256"
				}
			],
			"name": "getEntryByIndex",
			"outputs": [
				{
					"components": [
						{
							"internalType": "uint256",
							"name": "amount",
							"type": "uint256"
						},
						{
							"internalType": "uint256",
							"name": "contractModeId",
							"type": "uint256"
						},
						{
							"internalType": "uint256",
							"name": "pickedNumber",
							"type": "uint256"
						}
					],
					"internalType": "struct FareSpin.Entry",
					"name": "",
					"type": "tuple"
				}
			],
			"stateMutability": "view",
			"type": "function"
		},
		{
			"inputs": [
				{
					"internalType": "uint256",
					"name": "roundId",
					"type": "uint256"
				},
				{
					"internalType": "address",
					"name": "user",
					"type": "address"
				}
			],
			"name": "getEntryCount",
			"outputs": [
				{
					"internalType": "uint256",
					"name": "count",
					"type": "uint256"
				}
			],
			"stateMutability": "view",
			"type": "function"
		},
		{
			"inputs": [],
			"name": "getFareTokenAddress",
			"outputs": [
				{
					"internalType": "address",
					"name": "fareAddress",
					"type": "address"
				}
			],
			"stateMutability": "view",
			"type": "function"
		},
		{
			"inputs": [
				{
					"internalType": "uint256",
					"name": "roundId",
					"type": "uint256"
				},
				{
					"internalType": "uint256",
					"name": "contractModeId",
					"type": "uint256"
				}
			],
			"name": "getIsEliminator",
			"outputs": [
				{
					"internalType": "bool",
					"name": "isEliminator",
					"type": "bool"
				}
			],
			"stateMutability": "view",
			"type": "function"
		},
		{
			"inputs": [],
			"name": "isRoundPaused",
			"outputs": [
				{
					"internalType": "bool",
					"name": "",
					"type": "bool"
				}
			],
			"stateMutability": "view",
			"type": "function"
		},
		{
			"inputs": [],
			"name": "owner",
			"outputs": [
				{
					"internalType": "address",
					"name": "",
					"type": "address"
				}
			],
			"stateMutability": "view",
			"type": "function"
		},
		{
			"inputs": [],
			"name": "paused",
			"outputs": [
				{
					"internalType": "bool",
					"name": "",
					"type": "bool"
				}
			],
			"stateMutability": "view",
			"type": "function"
		},
		{
			"inputs": [
				{
					"components": [
						{
							"internalType": "uint256",
							"name": "amount",
							"type": "uint256"
						},
						{
							"internalType": "uint256",
							"name": "contractModeId",
							"type": "uint256"
						},
						{
							"internalType": "uint256",
							"name": "pickedNumber",
							"type": "uint256"
						}
					],
					"internalType": "struct FareSpin.Entry[]",
					"name": "entries",
					"type": "tuple[]"
				}
			],
			"name": "placeBatchEntry",
			"outputs": [],
			"stateMutability": "nonpayable",
			"type": "function"
		},
		{
			"inputs": [
				{
					"internalType": "bytes32",
					"name": "requestId",
					"type": "bytes32"
				},
				{
					"internalType": "uint256",
					"name": "randomness",
					"type": "uint256"
				}
			],
			"name": "rawFulfillRandomness",
			"outputs": [],
			"stateMutability": "nonpayable",
			"type": "function"
		},
		{
			"inputs": [],
			"name": "requestRandomNumber",
			"outputs": [
				{
					"internalType": "bytes32",
					"name": "requestId",
					"type": "bytes32"
				}
			],
			"stateMutability": "nonpayable",
			"type": "function"
		},
		{
			"inputs": [
				{
					"internalType": "uint256",
					"name": "",
					"type": "uint256"
				}
			],
			"name": "rounds",
			"outputs": [
				{
					"internalType": "uint256",
					"name": "id",
					"type": "uint256"
				},
				{
					"internalType": "uint256",
					"name": "randomNum",
					"type": "uint256"
				},
				{
					"internalType": "uint256",
					"name": "randomEliminator",
					"type": "uint256"
				},
				{
					"internalType": "bytes32",
					"name": "vrfRequestId",
					"type": "bytes32"
				},
				{
					"internalType": "uint256",
					"name": "vrfNum",
					"type": "uint256"
				}
			],
			"stateMutability": "view",
			"type": "function"
		},
		{
			"inputs": [
				{
					"internalType": "uint256",
					"name": "contractModeId",
					"type": "uint256"
				},
				{
					"internalType": "uint256",
					"name": "_contractExpectedValueFloor",
					"type": "uint256"
				}
			],
			"name": "setContractExpectedValueFloor",
			"outputs": [],
			"stateMutability": "nonpayable",
			"type": "function"
		},
		{
			"inputs": [
				{
					"internalType": "uint256",
					"name": "cardinality",
					"type": "uint256"
				},
				{
					"internalType": "uint256",
					"name": "contractExpectedValueFloor",
					"type": "uint256"
				},
				{
					"internalType": "uint256",
					"name": "mintMultiplier",
					"type": "uint256"
				},
				{
					"internalType": "uint256",
					"name": "minAmount",
					"type": "uint256"
				},
				{
					"internalType": "uint256",
					"name": "maxAmount",
					"type": "uint256"
				},
				{
					"internalType": "uint256",
					"name": "entryLimit",
					"type": "uint256"
				}
			],
			"name": "setContractMode",
			"outputs": [],
			"stateMutability": "nonpayable",
			"type": "function"
		},
		{
			"inputs": [
				{
					"internalType": "uint256",
					"name": "contractModeId",
					"type": "uint256"
				},
				{
					"internalType": "uint256",
					"name": "entryLimit",
					"type": "uint256"
				}
			],
			"name": "setContractModeEntryLimit",
			"outputs": [],
			"stateMutability": "nonpayable",
			"type": "function"
		},
		{
			"inputs": [
				{
					"internalType": "uint256",
					"name": "contractModeId",
					"type": "uint256"
				},
				{
					"internalType": "bool",
					"name": "isActive",
					"type": "bool"
				}
			],
			"name": "setContractModeIsActive",
			"outputs": [],
			"stateMutability": "nonpayable",
			"type": "function"
		},
		{
			"inputs": [
				{
					"internalType": "uint256",
					"name": "contractModeId",
					"type": "uint256"
				},
				{
					"internalType": "uint256",
					"name": "minAmount",
					"type": "uint256"
				},
				{
					"internalType": "uint256",
					"name": "maxAmount",
					"type": "uint256"
				}
			],
			"name": "setContractModeMinMax",
			"outputs": [],
			"stateMutability": "nonpayable",
			"type": "function"
		},
		{
			"inputs": [
				{
					"internalType": "address",
					"name": "_fareTokenAddress",
					"type": "address"
				}
			],
			"name": "setFareToken",
			"outputs": [],
			"stateMutability": "nonpayable",
			"type": "function"
		},
		{
			"inputs": [
				{
					"internalType": "bool",
					"name": "paused",
					"type": "bool"
				}
			],
			"name": "setPauseContract",
			"outputs": [],
			"stateMutability": "nonpayable",
			"type": "function"
		},
		{
			"inputs": [
				{
					"internalType": "bool",
					"name": "paused",
					"type": "bool"
				}
			],
			"name": "setRoundPaused",
			"outputs": [],
			"stateMutability": "nonpayable",
			"type": "function"
		},
		{
			"inputs": [
				{
					"internalType": "address",
					"name": "_treasuryAddress",
					"type": "address"
				}
			],
			"name": "setTreasuryAddress",
			"outputs": [],
			"stateMutability": "nonpayable",
			"type": "function"
		},
		{
			"inputs": [
				{
					"internalType": "uint256",
					"name": "percent",
					"type": "uint256"
				}
			],
			"name": "setTreasuryMint",
			"outputs": [],
			"stateMutability": "nonpayable",
			"type": "function"
		},
		{
			"inputs": [
				{
					"internalType": "uint256",
					"name": "roundId",
					"type": "uint256"
				},
				{
					"internalType": "address",
					"name": "user",
					"type": "address"
				}
			],
			"name": "settleBatchEntry",
			"outputs": [],
			"stateMutability": "nonpayable",
			"type": "function"
		},
		{
			"inputs": [
				{
					"internalType": "bytes32",
					"name": "vrfRequestId",
					"type": "bytes32"
				}
			],
			"name": "testConcludeRound",
			"outputs": [],
			"stateMutability": "nonpayable",
			"type": "function"
		},
		{
			"inputs": [
				{
					"internalType": "bytes32",
					"name": "vrfRequestId",
					"type": "bytes32"
				},
				{
					"internalType": "uint256",
					"name": "randomness",
					"type": "uint256"
				}
			],
			"name": "testFulfillRandomness",
			"outputs": [],
			"stateMutability": "nonpayable",
			"type": "function"
		},
		{
			"inputs": [],
			"name": "treasuryAddress",
			"outputs": [
				{
					"internalType": "address",
					"name": "",
					"type": "address"
				}
			],
			"stateMutability": "view",
			"type": "function"
		},
		{
			"inputs": [],
			"name": "treasuryMint",
			"outputs": [
				{
					"internalType": "uint256",
					"name": "",
					"type": "uint256"
				}
			],
			"stateMutability": "view",
			"type": "function"
		},
		{
			"inputs": [],
			"name": "vrfCoordinator",
			"outputs": [
				{
					"internalType": "address",
					"name": "",
					"type": "address"
				}
			],
			"stateMutability": "view",
			"type": "function"
		}
	],
	"bytecode": "0x60c060405260646007556008805460ff60a01b191690553480156200002357600080fd5b506040516200324c3803806200324c833981016040819052620000469162000217565b60016000819055805460ff191690556001600160a01b0380861660a0528085166080528616620000cf5760405162461bcd60e51b815260206004820152602960248201527f4e6f7420612076616c6964206164647265737320666f72205f66617265546f6b604482015268656e4164647265737360b81b60648201526084015b60405180910390fd5b6001600160a01b038416620001385760405162461bcd60e51b815260206004820152602860248201527f4e6f7420612076616c6964206164647265737320666f72206c696e6b546f6b656044820152676e4164647265737360c01b6064820152608401620000c6565b6001600160a01b038116620001a15760405162461bcd60e51b815260206004820152602860248201527f4e6f7420612076616c6964206164647265737320666f72205f74726561737572604482015267794164647265737360c01b6064820152608401620000c6565b60038054336001600160a01b0319918216179091556009805482166001600160a01b0397881617905560048054821697871697909717909655600a92909255600b55600880549094169216919091179091555062000286565b80516001600160a01b03811681146200021257600080fd5b919050565b60008060008060008060c087890312156200023157600080fd5b6200023c87620001fa565b95506200024c60208801620001fa565b94506200025c60408801620001fa565b935060608701519250608087015191506200027a60a08801620001fa565b90509295509295509295565b60805160a051612f92620002ba6000396000818161156601526123eb0152600081816113d901526123bc0152612f926000f3fe608060405234801561001057600080fd5b50600436106102265760003560e01c8063812391f011610130578063a6865d38116100b8578063cf5b8eda1161007c578063cf5b8eda14610632578063e601af7314610645578063f9985f2614610658578063fd41631a14610669578063fed71e651461067c57600080fd5b8063a6865d3814610548578063ad9ed3a21461055b578063aec0bc701461056e578063bb50a7721461058e578063c5f956af1461061f57600080fd5b80638da5cb5b116100ff5780638da5cb5b146104b257806390a04d34146104d757806394985ddd146104ea578063a3e56fa8146104fd578063a49a75a51461051057600080fd5b8063812391f01461040f57806381a38061146104325780638678a7b2146104455780638c65c81f1461044d57600080fd5b8063530759e9116101b35780636605bfda116101825780636605bfda146103bb5780637059ef2b146103ce57806374188969146103e157806374ba284f146103f4578063767cc6431461040757600080fd5b8063530759e9146103655780635727e25d14610388578063582dadf5146103905780635c975abb146103b057600080fd5b806327dba8ad116101fa57806327dba8ad146103075780633980b7bf1461031a5780633defd4c81461032d5780634851c659146103365780634998f2c41461035657600080fd5b80620322351461022b57806309003b50146102475780631111691014610267578063130a1efa146102f2575b600080fd5b61023460075481565b6040519081526020015b60405180910390f35b61025a61025536600461294c565b610690565b60405161023e9190612978565b6102bc61027536600461294c565b600e602090815260009283526040808420909152908252902080546001820154600283015460039093015491926001600160a01b03821692600160a01b90920460ff169185565b604080519586526001600160a01b039094166020860152911515928401929092526060830191909152608082015260a00161023e565b6103056103003660046129da565b61072e565b005b6103056103153660046129fc565b6107f7565b6103056103283660046129da565b6109a1565b6102346103e881565b610349610344366004612a3f565b610a70565b60405161023e9190612a58565b610234670de0b6b3a764000081565b6103786103733660046129da565b610b04565b604051901515815260200161023e565b610234610b45565b6103a361039e366004612a3f565b610b55565b60405161023e9190612ab3565b60015460ff16610378565b6103056103c9366004612af4565b610bc4565b6103056103dc366004612a3f565b610c66565b6103056103ef36600461294c565b610cf5565b610305610402366004612b16565b611177565b61023461125f565b61023461041d366004612a3f565b6000908152600d602052604090206005015490565b610305610440366004612af4565b61126a565b61023461130c565b61048a61045b366004612a3f565b600d60205260009081526040902080546001820154600283015460038401546004909401549293919290919085565b604080519586526020860194909452928401919091526060830152608082015260a00161023e565b6003546001600160a01b03165b6040516001600160a01b03909116815260200161023e565b6103056104e5366004612b50565b6114da565b6103056104f83660046129da565b61155b565b6009546104bf906001600160a01b031681565b61023461051e36600461294c565b6000918252600e602090815260408084206001600160a01b03909316845291905290206004015490565b610305610556366004612a3f565b6115dd565b6103056105693660046129da565b6117a8565b61058161057c366004612b80565b611881565b60405161023e9190612bb5565b6105e261059c366004612a3f565b600c602052600090815260409020805460018201546002830154600384015460048501546005860154600687015460079097015495969495939492939192909160ff1688565b604080519889526020890197909752958701949094526060860192909252608085015260a084015260c0830152151560e08201526101000161023e565b6008546104bf906001600160a01b031681565b610305610640366004612bd6565b611920565b610305610653366004612bd6565b6119a2565b6004546001600160a01b03166104bf565b610305610677366004612c63565b6119e5565b60085461037890600160a01b900460ff1681565b6000828152600e602090815260408083206001600160a01b03851684528252808320600401805482518185028101850190935280835260609493849084015b8282101561071f57838290600052602060002090600302016040518060600160405290816000820154815260200160018201548152602001600282015481525050815260200190600101906106cf565b50929450505050505b92915050565b6003546001600160a01b031633146107615760405162461bcd60e51b815260040161075890612d37565b60405180910390fd5b60015460ff16156107845760405162461bcd60e51b815260040161075890612d6e565b6000600d600061079360055490565b8152602081019190915260400160002060050154116107e95760405162461bcd60e51b81526020600482015260126024820152712737903ab9b2b9399034b7103937bab7321760711b6044820152606401610758565b6107f38282612350565b5050565b6003546001600160a01b031633146108215760405162461bcd60e51b815260040161075890612d37565b858111156108715760405162461bcd60e51b815260206004820152601e60248201527f4c696d69742067726561746572207468616e2063617264696e616c69747900006044820152606401610758565b6000831180156108815750600082115b801561088c57508183115b156108d95760405162461bcd60e51b815260206004820181905260248201527f6d696e416d6f756e742067726561746572207468616e206d6178416d6f756e746044820152606401610758565b60006108e460065490565b604080516101008101825282815260208082018b81528284018b8152606084018b8152608085018b815260a086018b815260c087018b8152600160e0890181815260008c8152600c909952999097209751885594518787015592516002870155905160038601555160048501555160058401555160068084019190915592516007909201805460ff191692151592909217909155815401905590506040518190600080516020612f3d83398151915290600090a250505050505050565b6003546001600160a01b031633146109cb5760405162461bcd60e51b815260040161075890612d37565b60065482106109ec5760405162461bcd60e51b815260040161075890612d98565b670de0b6b3a76400008110610a435760405162461bcd60e51b815260206004820152601f60248201527f466c6f6f72206d757374206265206c657373207468616e206365696c696e67006044820152606401610758565b6000828152600c6020526040808220600201839055518391600080516020612f3d83398151915291a25050565b6060600d6000838152602001908152602001600020600601805480602002602001604051908101604052809291908181526020016000905b82821015610af95760008481526020908190206040805160608101825260038602909201805483526001808201548486015260029091015460ff161515918301919091529083529092019101610aa8565b505050509050919050565b6000828152600d60205260408120600601805483908110610b2757610b27612dc7565b600091825260209091206002600390920201015460ff169392505050565b6000610b5060055490565b905090565b6000818152600d6020908152604091829020600501805483518184028101840190945280845260609392830182828015610bb857602002820191906000526020600020905b81546001600160a01b03168152600190910190602001808311610b9a575b50505050509050919050565b6003546001600160a01b03163314610bee5760405162461bcd60e51b815260040161075890612d37565b6001600160a01b038116610c445760405162461bcd60e51b815260206004820152601b60248201527f5f74726561737572794164647265737320697320696e76616c696400000000006044820152606401610758565b600880546001600160a01b0319166001600160a01b0392909216919091179055565b6003546001600160a01b03163314610c905760405162461bcd60e51b815260040161075890612d37565b6103e8811115610cf05760405162461bcd60e51b815260206004820152602560248201527f5472656173757279206d696e742025206d757374206265206c657373207468616044820152646e2031302560d81b6064820152608401610758565b600755565b60026000541415610d485760405162461bcd60e51b815260206004820152601f60248201527f5265656e7472616e637947756172643a207265656e7472616e742063616c6c006044820152606401610758565b600260005560015460ff1615610d705760405162461bcd60e51b815260040161075890612d6e565b6000828152600e602090815260408083206001600160a01b03851684528252808320600481018054835181860281018601909452808452919493909190849084015b82821015610e025783829060005260206000209060030201604051806060016040529081600082015481526020016001820154815260200160028201548152505081526020019060010190610db2565b505050509050816002015460001415610e5d5760405162461bcd60e51b815260206004820152601a60248201527f426174636820656e74727920646f6573206e6f742065786973740000000000006044820152606401610758565b6001820154600160a01b900460ff1615610eb15760405162461bcd60e51b8152602060048201526015602482015274115b9d1c9e48185b1c9958591e481cd95d1d1b1959605a1b6044820152606401610758565b83610ebb60055490565b11610f015760405162461bcd60e51b8152602060048201526016602482015275149bdd5b99081b9bdd081e595d081c995cdbdb1d995960521b6044820152606401610758565b60008060005b835181101561109057610f3787858381518110610f2657610f26612dc7565b602002602001015160200151610b04565b8015610f41575082155b15610f68576001850154610f5f9088906001600160a01b031661235b565b6001925061107e565b6000600c6000868481518110610f8057610f80612dc7565b6020908102919091018101518101518252818101929092526040908101600090812082516101008101845281548152600180830154828701526002830154828601526003830154606083015260048301546080830152600583015460a0830152600683015460c083015260079092015460ff16151560e08201528c8352600d909452919020015486519192509086908490811061101f5761101f612dc7565b60200260200101516040015182602001518261103b9190612df3565b141561107b57816060015186848151811061105857611058612dc7565b60200260200101516000015161106e9190612e1d565b6110789085612e3c565b93505b50505b8061108881612e54565b915050610f07565b50801561110b57600480546001860154604051632bf545c760e11b81526001600160a01b03918216938101939093526024830184905216906357ea8b8e90604401600060405180830381600087803b1580156110eb57600080fd5b505af11580156110ff573d6000803e3d6000fd5b50505050600384018190555b600184018054600160a01b60ff60a01b19821617909155600385015460405190151581526001600160a01b039091169087907f488ab6b2e5b3b17c2e7ed02f7dd03132639a79fa01716841f9452383627b227f9060200160405180910390a35050600160005550505050565b6003546001600160a01b031633146111a15760405162461bcd60e51b815260040161075890612d37565b6000821180156111b15750600081115b80156111bc57508082115b156112095760405162461bcd60e51b815260206004820181905260248201527f6d696e416d6f756e742067726561746572207468616e206d6178416d6f756e746044820152606401610758565b600654831061122a5760405162461bcd60e51b815260040161075890612d98565b6000838152600c602052604080822060048101859055600501839055518491600080516020612f3d83398151915291a2505050565b6000610b5060065490565b6003546001600160a01b031633146112945760405162461bcd60e51b815260040161075890612d37565b6001600160a01b0381166112ea5760405162461bcd60e51b815260206004820152601c60248201527f5f66617265546f6b656e4164647265737320697320696e76616c6964000000006044820152606401610758565b600480546001600160a01b0319166001600160a01b0392909216919091179055565b6003546000906001600160a01b031633146113395760405162461bcd60e51b815260040161075890612d37565b60015460ff161561135c5760405162461bcd60e51b815260040161075890612d6e565b6000600d600061136b60055490565b8152602081019190915260400160002060050154116113c15760405162461bcd60e51b81526020600482015260126024820152712737903ab9b2b9399034b7103937bab7321760711b6044820152606401610758565b600b546040516370a0823160e01b81523060048201527f00000000000000000000000000000000000000000000000000000000000000006001600160a01b0316906370a082319060240160206040518083038186803b15801561142357600080fd5b505afa158015611437573d6000803e3d6000fd5b505050506040513d601f19601f8201168201806040525081019061145b9190612e6f565b101561149b5760405162461bcd60e51b815260206004820152600f60248201526e4e6f7420656e6f756768204c494e4b60881b6044820152606401610758565b6114a9600a54600b546123b8565b60405190915081907f1f528edfe7e851f18127c23c0853d428822bcefe59219e6afb0c6f25ffe9d51090600090a290565b6003546001600160a01b031633146115045760405162461bcd60e51b815260040161075890612d37565b60065482106115255760405162461bcd60e51b815260040161075890612d98565b6000828152600c6020526040808220600701805460ff1916841515179055518391600080516020612f3d83398151915291a25050565b336001600160a01b037f000000000000000000000000000000000000000000000000000000000000000016146115d35760405162461bcd60e51b815260206004820152601f60248201527f4f6e6c7920565246436f6f7264696e61746f722063616e2066756c66696c6c006044820152606401610758565b6107f38282610784565b6003546001600160a01b031633146116075760405162461bcd60e51b815260040161075890612d37565b60015460ff161561162a5760405162461bcd60e51b815260040161075890612d6e565b600061163461254b565b9050600061164160055490565b90506000606483600160405160200161166792919091825260ff16602082015260400190565b6040516020818303038152906040528051906020012060001c61168a9190612df3565b90506000670de0b6b3a76400008460026040516020016116b792919091825260ff16602082015260400190565b6040516020818303038152906040528051906020012060001c6116da9190612df3565b6000848152600d60205260409020848155600181018490556002810182905560038101879055600481018690559091506117148285612662565b611722600580546001019055565b6040805184815260208101849052879186917fafc2f66946790fcb766262ddc355d72764bd78a061f283ff3b754ca9ff8ca48d910160405180910390a36008805460ff60a01b19169055604051600081527f566e91f99008ecb36dceb72af2a1cd0519db0ccef530792829d62681fd319b309060200160405180910390a1505050505050565b6003546001600160a01b031633146117d25760405162461bcd60e51b815260040161075890612d37565b60065482106117f35760405162461bcd60e51b815260040161075890612d98565b6000828152600c60205260409020600101548111156118545760405162461bcd60e51b815260206004820152601860248201527f656e7472794c696d6974203e2063617264696e616c69747900000000000000006044820152606401610758565b6000828152600c6020526040808220600601839055518391600080516020612f3d83398151915291a25050565b6118a560405180606001604052806000815260200160008152602001600081525090565b6000848152600e602090815260408083206001600160a01b038716845290915281206004018054849081106118dc576118dc612dc7565b906000526020600020906003020160405180606001604052908160008201548152602001600182015481526020016002820154815250509050809150509392505050565b6003546001600160a01b0316331461194a5760405162461bcd60e51b815260040161075890612d37565b60088054821515600160a01b0260ff60a01b199091161790556040517f566e91f99008ecb36dceb72af2a1cd0519db0ccef530792829d62681fd319b309061199790831515815260200190565b60405180910390a150565b6003546001600160a01b031633146119cc5760405162461bcd60e51b815260040161075890612d37565b80156119dd576119da61270d565b50565b6119da61277c565b60026000541415611a385760405162461bcd60e51b815260206004820152601f60248201527f5265656e7472616e637947756172643a207265656e7472616e742063616c6c006044820152606401610758565b600260005560015460ff1615611a605760405162461bcd60e51b815260040161075890612d6e565b600854600160a01b900460ff1615611aac5760405162461bcd60e51b815260206004820152600f60248201526e149bdd5b99081a5cc81c185d5cd959608a1b6044820152606401610758565b6000611ab760065490565b82519091506000611ac760055490565b6000818152600d602052604081206005015491925080611ae56127f6565b6000858152600e60209081526040808320338452909152902060028101549192509015611b545760405162461bcd60e51b815260206004820181905260248201527f416c726561647920656e746572656420696e2063757272656e7420726f756e646044820152606401610758565b60005b8681101561210757600654898281518110611b7457611b74612dc7565b60200260200101516020015110611b9d5760405162461bcd60e51b815260040161075890612d98565b6000600c60008b8481518110611bb557611bb5612dc7565b602002602001015160200151815260200190815260200160002060405180610100016040529081600082015481526020016001820154815260200160028201548152602001600382015481526020016004820154815260200160058201548152602001600682015481526020016007820160009054906101000a900460ff1615151515815250509050898281518110611c5057611c50612dc7565b60200260200101516000015160001415611ca45760405162461bcd60e51b8152602060048201526015602482015274416d6f756e742063616e6e6f74206265207a65726f60581b6044820152606401610758565b8060e00151611cf55760405162461bcd60e51b815260206004820152601b60248201527f436f6e7472616374206d6f6465206973206e6f742061637469766500000000006044820152606401610758565b80602001518a8381518110611d0c57611d0c612dc7565b60200260200101516040015110611d5d5760405162461bcd60e51b815260206004820152601560248201527424b73b30b634b2103834b1b5b2b210373ab6b132b960591b6044820152606401610758565b83816000015181518110611d7357611d73612dc7565b6020026020010151604001518a8381518110611d9157611d91612dc7565b60200260200101516040015181518110611dad57611dad612dc7565b602002602001015115611e0d5760405162461bcd60e51b815260206004820152602260248201527f4475706c6963617465207069636b65644e756d62657220627920636f6e74726160448201526118dd60f21b6064820152608401610758565b600184826000015181518110611e2557611e25612dc7565b6020026020010151604001518b8481518110611e4357611e43612dc7565b60200260200101516040015181518110611e5f57611e5f612dc7565b9115156020928302919091019091015260a081015115611f6257898281518110611e8b57611e8b612dc7565b60200260200101516000015184826000015181518110611ead57611ead612dc7565b602002602001015160000151611ec39190612e3c565b84826000015181518110611ed957611ed9612dc7565b60209081029190910101515260a0810151815185518691908110611eff57611eff612dc7565b60200260200101516000015110611f625760405162461bcd60e51b815260206004820152602160248201527f436f6e7472616374206d6f6465206d617820616d6f756e7420657863656564656044820152601960fa1b6064820152608401610758565b83816000015181518110611f7857611f78612dc7565b6020026020010151602001516001611f909190612e3c565b84826000015181518110611fa657611fa6612dc7565b602002602001015160200181815250508060c0015184826000015181518110611fd157611fd1612dc7565b60200260200101516020015111156120365760405162461bcd60e51b815260206004820152602260248201527f436f6e7472616374206d6f646520656e747279206c696d697420657863656564604482015261195960f21b6064820152608401610758565b89828151811061204857612048612dc7565b6020026020010151600001518561205f9190612e3c565b94508260040160405180606001604052808c858151811061208257612082612dc7565b6020026020010151600001518152602001836000015181526020018c85815181106120af576120af612dc7565b60209081029190910181015160409081015190925283546001818101865560009586529482902084516003909202019081559083015193810193909355015160029091015550806120ff81612e54565b915050611b57565b5060005b878110156121c1576000818152600c60205260409020600401541580159061216257506000818152600c6020526040902060040154835184908390811061215457612154612dc7565b602002602001015160000151105b156121af5760405162461bcd60e51b815260206004820181905260248201527f436f6e7472616374206d6f6465206d696e20616d6f756e74206e6f74206d65746044820152606401610758565b806121b981612e54565b91505061210b565b50838155600180820180546002840186905560006003850181905560ff60a01b19339081166001600160a81b031990931692909217909255878252600d60209081526040808420600501805495860181558452922090920180546001600160a01b031916831790556004805491516303fc91f360e51b815290810192909252602482018590526001600160a01b031690637f923e6090604401600060405180830381600087803b15801561227457600080fd5b505af1158015612288573d6000803e3d6000fd5b50506004546008546007546001600160a01b0392831694506357ea8b8e93509116906122b49087612e88565b6040516001600160e01b031960e085901b1681526001600160a01b0390921660048301526024820152604401600060405180830381600087803b1580156122fa57600080fd5b505af115801561230e573d6000803e3d6000fd5b505060405133925086915087907fc03e0b12906d102f05416b84b16272e887bdcc9e0ec10d3b18a2a88d88edfdd590600090a450506001600055505050505050565b600061164160055490565b60015460ff161561237e5760405162461bcd60e51b815260040161075890612d6e565b6040516001600160a01b0382169083907f694782527f5a66f715f32799c163a69579929a5548642eb0e121da554410171290600090a35050565b60007f00000000000000000000000000000000000000000000000000000000000000006001600160a01b0316634000aea07f000000000000000000000000000000000000000000000000000000000000000084866000604051602001612428929190918252602082015260400190565b6040516020818303038152906040526040518463ffffffff1660e01b815260040161245593929190612e9c565b602060405180830381600087803b15801561246f57600080fd5b505af1158015612483573d6000803e3d6000fd5b505050506040513d601f19601f820116820180604052508101906124a79190612f08565b50600083815260026020818152604080842054815180840189905280830186905230606082015260808082018390528351808303909101815260a090910190925281519183019190912093879052919052612503906001612e3c565b6000858152600260205260409020556125438482604080516020808201949094528082019290925280518083038201815260609092019052805191012090565b949350505050565b6040516bffffffffffffffffffffffff193360601b166020820152600090600019908290439042906034016040516020818303038152906040528051906020012060001c6125999190612e88565b6040516bffffffffffffffffffffffff194160601b166020820152459042906034016040516020818303038152906040528051906020012060001c6125de9190612e88565b6125e84442612e3c565b6125f29190612e3c565b6125fc9190612e3c565b6126069190612e3c565b6126109190612e3c565b60405160200161262291815260200190565b60408051601f1981840301815291905280516020909101209050816126478183612e88565b6126519190612e1d565b61265b9082612f25565b9250505090565b600061266d60065490565b905060005b81811015612707576000838152600d602090815260408083208151606081018352858152858552600c8085528386206002908101548387018181529287528b1015948301948552600690930180546001808201835591885295909620915160039095029091019384555193830193909355519101805460ff1916911515919091179055806126ff81612e54565b915050612672565b50505050565b60015460ff16156127305760405162461bcd60e51b815260040161075890612d6e565b6001805460ff1916811790557f62e78cea01bee320cd4e420270b5ea74000d11b0c9f74754ebdbfc544b05a258335b6040516001600160a01b03909116815260200160405180910390a1565b60015460ff166127c55760405162461bcd60e51b815260206004820152601460248201527314185d5cd8589b194e881b9bdd081c185d5cd95960621b6044820152606401610758565b6001805460ff191690557f5db9ee0a495bf2e6ff9c91a7834c1ba4fdd244a5e8aa4e537bd38aeae4b073aa3361275f565b6060600061280360065490565b905060008167ffffffffffffffff81111561282057612820612bf3565b60405190808252806020026020018201604052801561287557816020015b61286260405180606001604052806000815260200160008152602001606081525090565b81526020019060019003908161283e5790505b50905060005b81518110156129295760405180606001604052806000815260200160008152602001600c60008481526020019081526020016000206001015467ffffffffffffffff8111156128cc576128cc612bf3565b6040519080825280602002602001820160405280156128f5578160200160208202803683370190505b5081525082828151811061290b5761290b612dc7565b6020026020010181905250808061292190612e54565b91505061287b565b5092915050565b80356001600160a01b038116811461294757600080fd5b919050565b6000806040838503121561295f57600080fd5b8235915061296f60208401612930565b90509250929050565b6020808252825182820181905260009190848201906040850190845b818110156129ce576129bb8385518051825260208082015190830152604090810151910152565b9284019260609290920191600101612994565b50909695505050505050565b600080604083850312156129ed57600080fd5b50508035926020909101359150565b60008060008060008060c08789031215612a1557600080fd5b505084359660208601359650604086013595606081013595506080810135945060a0013592509050565b600060208284031215612a5157600080fd5b5035919050565b602080825282518282018190526000919060409081850190868401855b82811015612aa657815180518552868101518786015285015115158585015260609093019290850190600101612a75565b5091979650505050505050565b6020808252825182820181905260009190848201906040850190845b818110156129ce5783516001600160a01b031683529284019291840191600101612acf565b600060208284031215612b0657600080fd5b612b0f82612930565b9392505050565b600080600060608486031215612b2b57600080fd5b505081359360208301359350604090920135919050565b80151581146119da57600080fd5b60008060408385031215612b6357600080fd5b823591506020830135612b7581612b42565b809150509250929050565b600080600060608486031215612b9557600080fd5b83359250612ba560208501612930565b9150604084013590509250925092565b81518152602080830151908201526040808301519082015260608101610728565b600060208284031215612be857600080fd5b8135612b0f81612b42565b634e487b7160e01b600052604160045260246000fd5b6040516060810167ffffffffffffffff81118282101715612c2c57612c2c612bf3565b60405290565b604051601f8201601f1916810167ffffffffffffffff81118282101715612c5b57612c5b612bf3565b604052919050565b60006020808385031215612c7657600080fd5b823567ffffffffffffffff80821115612c8e57600080fd5b818501915085601f830112612ca257600080fd5b813581811115612cb457612cb4612bf3565b612cc2848260051b01612c32565b81815284810192506060918202840185019188831115612ce157600080fd5b938501935b82851015612d2b5780858a031215612cfe5760008081fd5b612d06612c09565b8535815286860135878201526040808701359082015284529384019392850192612ce6565b50979650505050505050565b60208082526017908201527f43616c6c6572206973206e6f7420746865206f776e6572000000000000000000604082015260600190565b60208082526010908201526f14185d5cd8589b194e881c185d5cd95960821b604082015260600190565b602080825260159082015274496e76616c696420636f6e7472616374206d6f646560581b604082015260600190565b634e487b7160e01b600052603260045260246000fd5b634e487b7160e01b600052601260045260246000fd5b600082612e0257612e02612ddd565b500690565b634e487b7160e01b600052601160045260246000fd5b6000816000190483118215151615612e3757612e37612e07565b500290565b60008219821115612e4f57612e4f612e07565b500190565b6000600019821415612e6857612e68612e07565b5060010190565b600060208284031215612e8157600080fd5b5051919050565b600082612e9757612e97612ddd565b500490565b60018060a01b038416815260006020848184015260606040840152835180606085015260005b81811015612ede57858101830151858201608001528201612ec2565b81811115612ef0576000608083870101525b50601f01601f19169290920160800195945050505050565b600060208284031215612f1a57600080fd5b8151612b0f81612b42565b600082821015612f3757612f37612e07565b50039056fe8737f869d841892b3129422522ac69ac1189cf401d8cb0dc9948efa837731181a264697066735822122074b5acc409811f0b4150fe7422d594da613b3cad9c41f2fb32ff585094544a9764736f6c63430008090033",
	"linkReferences": {},
	"deployedLinkReferences": {}
}